{
  "contractName": "Invoice",
  "abi": [
    {
      "anonymous": false,
      "inputs": [
        {
          "indexed": true,
          "internalType": "string",
          "name": "documentHash",
          "type": "string"
        },
        {
          "indexed": false,
          "internalType": "string",
          "name": "invoiceNumber",
          "type": "string"
        },
        {
          "indexed": false,
          "internalType": "string",
          "name": "vendorName",
          "type": "string"
        },
        {
          "indexed": false,
          "internalType": "uint256",
          "name": "timestamp",
          "type": "uint256"
        }
      ],
      "name": "InvoiceRecorded",
      "type": "event"
    },
    {
      "inputs": [
        {
          "internalType": "string",
          "name": "_invoiceNumber",
          "type": "string"
        },
        {
          "internalType": "string",
          "name": "_vendorName",
          "type": "string"
        },
        {
          "internalType": "string",
          "name": "_totalAmount",
          "type": "string"
        },
        {
          "internalType": "string",
          "name": "_riskScore",
          "type": "string"
        },
        {
          "internalType": "string",
          "name": "_documentHash",
          "type": "string"
        }
      ],
      "name": "recordInvoice",
      "outputs": [],
      "stateMutability": "nonpayable",
      "type": "function"
    },
    {
      "inputs": [
        {
          "internalType": "string",
          "name": "_documentHash",
          "type": "string"
        }
      ],
      "name": "verifyInvoice",
      "outputs": [
        {
          "internalType": "bool",
          "name": "exists",
          "type": "bool"
        },
        {
          "internalType": "string",
          "name": "invoiceNumber",
          "type": "string"
        },
        {
          "internalType": "string",
          "name": "vendorName",
          "type": "string"
        },
        {
          "internalType": "string",
          "name": "totalAmount",
          "type": "string"
        },
        {
          "internalType": "string",
          "name": "riskScore",
          "type": "string"
        },
        {
          "internalType": "uint256",
          "name": "timestamp",
          "type": "uint256"
        },
        {
          "internalType": "address",
          "name": "recordedBy",
          "type": "address"
        }
      ],
      "stateMutability": "view",
      "type": "function",
      "constant": true
    }
  ],
  "bytecode": "0x608060405234801561001057600080fd5b50610f53806100206000396000f3fe608060405234801561001057600080fd5b50600436106100365760003560e01c806332deeeb31461003b57806337c0910114610057575b600080fd5b61005560048036038101906100509190610846565b61008d565b005b610071600480360381019061006c919061094d565b6102b0565b6040516100849796959493929190610a8a565b60405180910390f35b60018160405161009d9190610b51565b908152602001604051809103902060009054906101000a900460ff16156100f9576040517f08c379a00000000000000000000000000000000000000000000000000000000081526004016100f090610bda565b60405180910390fd5b6040518060e001604052808681526020018581526020018481526020018381526020018281526020014281526020013373ffffffffffffffffffffffffffffffffffffffff168152506000826040516101529190610b51565b908152602001604051809103902060008201518160000190816101759190610e06565b50602082015181600101908161018b9190610e06565b5060408201518160020190816101a19190610e06565b5060608201518160030190816101b79190610e06565b5060808201518160040190816101cd9190610e06565b5060a0820151816005015560c08201518160060160006101000a81548173ffffffffffffffffffffffffffffffffffffffff021916908373ffffffffffffffffffffffffffffffffffffffff160217905550905050600180826040516102339190610b51565b908152602001604051809103902060006101000a81548160ff021916908315150217905550806040516102669190610b51565b60405180910390207f9e273250d7941f5c251fbb504c2fb0b950e5548bfd5e6427a71d83bed24398b98686426040516102a193929190610ed8565b60405180910390a25050505050565b60006060806060806000806001886040516102cb9190610b51565b908152602001604051809103902060009054906101000a900460ff1661034b57600080600060405180602001604052806000815250919060405180602001604052806000815250919060405180602001604052806000815250919060405180602001604052806000815250919096509650965096509650965096506106e1565b6000808960405161035c9190610b51565b90815260200160405180910390206040518060e001604052908160008201805461038590610c29565b80601f01602080910402602001604051908101604052809291908181526020018280546103b190610c29565b80156103fe5780601f106103d3576101008083540402835291602001916103fe565b820191906000526020600020905b8154815290600101906020018083116103e157829003601f168201915b5050505050815260200160018201805461041790610c29565b80601f016020809104026020016040519081016040528092919081815260200182805461044390610c29565b80156104905780601f1061046557610100808354040283529160200191610490565b820191906000526020600020905b81548152906001019060200180831161047357829003601f168201915b505050505081526020016002820180546104a990610c29565b80601f01602080910402602001604051908101604052809291908181526020018280546104d590610c29565b80156105225780601f106104f757610100808354040283529160200191610522565b820191906000526020600020905b81548152906001019060200180831161050557829003601f168201915b5050505050815260200160038201805461053b90610c29565b80601f016020809104026020016040519081016040528092919081815260200182805461056790610c29565b80156105b45780601f10610589576101008083540402835291602001916105b4565b820191906000526020600020905b81548152906001019060200180831161059757829003601f168201915b505050505081526020016004820180546105cd90610c29565b80601f01602080910402602001604051908101604052809291908181526020018280546105f990610c29565b80156106465780601f1061061b57610100808354040283529160200191610646565b820191906000526020600020905b81548152906001019060200180831161062957829003601f168201915b50505050508152602001600582015481526020016006820160009054906101000a900473ffffffffffffffffffffffffffffffffffffffff1673ffffffffffffffffffffffffffffffffffffffff1673ffffffffffffffffffffffffffffffffffffffff16815250509050600181600001518260200151836040015184606001518560a001518660c001519750975097509750975097509750505b919395979092949650565b6000604051905090565b600080fd5b600080fd5b600080fd5b600080fd5b6000601f19601f8301169050919050565b7f4e487b7100000000000000000000000000000000000000000000000000000000600052604160045260246000fd5b6107538261070a565b810181811067ffffffffffffffff821117156107725761077161071b565b5b80604052505050565b60006107856106ec565b9050610791828261074a565b919050565b600067ffffffffffffffff8211156107b1576107b061071b565b5b6107ba8261070a565b9050602081019050919050565b82818337600083830152505050565b60006107e96107e484610796565b61077b565b90508281526020810184848401111561080557610804610705565b5b6108108482856107c7565b509392505050565b600082601f83011261082d5761082c610700565b5b813561083d8482602086016107d6565b91505092915050565b600080600080600060a08688031215610862576108616106f6565b5b600086013567ffffffffffffffff8111156108805761087f6106fb565b5b61088c88828901610818565b955050602086013567ffffffffffffffff8111156108ad576108ac6106fb565b5b6108b988828901610818565b945050604086013567ffffffffffffffff8111156108da576108d96106fb565b5b6108e688828901610818565b935050606086013567ffffffffffffffff811115610907576109066106fb565b5b61091388828901610818565b925050608086013567ffffffffffffffff811115610934576109336106fb565b5b61094088828901610818565b9150509295509295909350565b600060208284031215610963576109626106f6565b5b600082013567ffffffffffffffff811115610981576109806106fb565b5b61098d84828501610818565b91505092915050565b60008115159050919050565b6109ab81610996565b82525050565b600081519050919050565b600082825260208201905092915050565b60005b838110156109eb5780820151818401526020810190506109d0565b60008484015250505050565b6000610a02826109b1565b610a0c81856109bc565b9350610a1c8185602086016109cd565b610a258161070a565b840191505092915050565b6000819050919050565b610a4381610a30565b82525050565b600073ffffffffffffffffffffffffffffffffffffffff82169050919050565b6000610a7482610a49565b9050919050565b610a8481610a69565b82525050565b600060e082019050610a9f600083018a6109a2565b8181036020830152610ab181896109f7565b90508181036040830152610ac581886109f7565b90508181036060830152610ad981876109f7565b90508181036080830152610aed81866109f7565b9050610afc60a0830185610a3a565b610b0960c0830184610a7b565b98975050505050505050565b600081905092915050565b6000610b2b826109b1565b610b358185610b15565b9350610b458185602086016109cd565b80840191505092915050565b6000610b5d8284610b20565b915081905092915050565b7f496e766f696365207769746820746869732066696e6765727072696e7420616c60008201527f726561647920657869737473206f6e20746865206c65646765722e0000000000602082015250565b6000610bc4603b836109bc565b9150610bcf82610b68565b604082019050919050565b60006020820190508181036000830152610bf381610bb7565b9050919050565b7f4e487b7100000000000000000000000000000000000000000000000000000000600052602260045260246000fd5b60006002820490506001821680610c4157607f821691505b602082108103610c5457610c53610bfa565b5b50919050565b60008190508160005260206000209050919050565b60006020601f8301049050919050565b600082821b905092915050565b600060088302610cbc7fffffffffffffffffffffffffffffffffffffffffffffffffffffffffffffffff82610c7f565b610cc68683610c7f565b95508019841693508086168417925050509392505050565b6000819050919050565b6000610d03610cfe610cf984610a30565b610cde565b610a30565b9050919050565b6000819050919050565b610d1d83610ce8565b610d31610d2982610d0a565b848454610c8c565b825550505050565b600090565b610d46610d39565b610d51818484610d14565b505050565b5b81811015610d7557610d6a600082610d3e565b600181019050610d57565b5050565b601f821115610dba57610d8b81610c5a565b610d9484610c6f565b81016020851015610da3578190505b610db7610daf85610c6f565b830182610d56565b50505b505050565b600082821c905092915050565b6000610ddd60001984600802610dbf565b1980831691505092915050565b6000610df68383610dcc565b9150826002028217905092915050565b610e0f826109b1565b67ffffffffffffffff811115610e2857610e2761071b565b5b610e328254610c29565b610e3d828285610d79565b600060209050601f831160018114610e705760008415610e5e578287015190505b610e688582610dea565b865550610ed0565b601f198416610e7e86610c5a565b60005b82811015610ea657848901518255600182019150602085019450602081019050610e81565b86831015610ec35784890151610ebf601f891682610dcc565b8355505b6001600288020188555050505b505050505050565b60006060820190508181036000830152610ef281866109f7565b90508181036020830152610f0681856109f7565b9050610f156040830184610a3a565b94935050505056fea264697066735822122074b33c4d6003361c0dc9fb9a753b6366626af04a7d4169fe31f25d1cd5c0c15c64736f6c63430008150033",
  "immutableReferences": {},
  "source": "// SPDX-License-Identifier: MIT\r\npragma solidity ^0.8.0;\r\n\r\ncontract Invoice {\r\n    struct InvoiceRecord {\r\n        string invoiceNumber;\r\n        string vendorName;\r\n        string totalAmount;  // Storing as string to avoid formatting/floating point issues in Solidity\r\n        string riskScore;    // The ML AI risk score\r\n        string documentHash; // The unique fingerprint (e.g., SHA-256 hash of the invoice image)\r\n        uint256 timestamp;\r\n        address recordedBy;\r\n    }\r\n\r\n    // Mapping from unique document hash to the invoice record\r\n    mapping(string => InvoiceRecord) private invoices;\r\n    \r\n    // To track if a document hash already exists\r\n    mapping(string => bool) private hashExists;\r\n\r\n    event InvoiceRecorded(string indexed documentHash, string invoiceNumber, string vendorName, uint256 timestamp);\r\n\r\n    /**\r\n     * @dev Store the fingerprint of an invoice on the blockchain.\r\n     * @param _invoiceNumber The parsed invoice number\r\n     * @param _vendorName The parsed vendor name\r\n     * @param _totalAmount The parsed total amount\r\n     * @param _riskScore The calculated risk score from ML model\r\n     * @param _documentHash The unique fingerprint/hash of the invoice document\r\n     */\r\n    function recordInvoice(\r\n        string memory _invoiceNumber,\r\n        string memory _vendorName,\r\n        string memory _totalAmount,\r\n        string memory _riskScore,\r\n        string memory _documentHash\r\n    ) public {\r\n        require(!hashExists[_documentHash], \"Invoice with this fingerprint already exists on the ledger.\");\r\n\r\n        invoices[_documentHash] = InvoiceRecord({\r\n            invoiceNumber: _invoiceNumber,\r\n            vendorName: _vendorName,\r\n            totalAmount: _totalAmount,\r\n            riskScore: _riskScore,\r\n            documentHash: _documentHash,\r\n            timestamp: block.timestamp,\r\n            recordedBy: msg.sender\r\n        });\r\n\r\n        hashExists[_documentHash] = true;\r\n\r\n        emit InvoiceRecorded(_documentHash, _invoiceNumber, _vendorName, block.timestamp);\r\n    }\r\n\r\n    /**\r\n     * @dev Fetch an invoice's recorded details using its document hash to detect tampering.\r\n     * @param _documentHash The unique fingerprint/hash of the invoice document\r\n     */\r\n    function verifyInvoice(string memory _documentHash) public view returns (\r\n        bool exists,\r\n        string memory invoiceNumber,\r\n        string memory vendorName,\r\n        string memory totalAmount,\r\n        string memory riskScore,\r\n        uint256 timestamp,\r\n        address recordedBy\r\n    ) {\r\n        if (!hashExists[_documentHash]) {\r\n            return (false, \"\", \"\", \"\", \"\", 0, address(0));\r\n        }\r\n\r\n        InvoiceRecord memory record = invoices[_documentHash];\r\n        return (\r\n            true,\r\n            record.invoiceNumber,\r\n            record.vendorName,\r\n            record.totalAmount,\r\n            record.riskScore,\r\n            record.timestamp,\r\n            record.recordedBy\r\n        );\r\n    }\r\n}",
  "sourcePath": "E:\\InvGuard\\blockchain\\contracts\\Invoice.sol",
  "compiler": {
    "name": "solc",
    "version": "0.8.21+commit.d9974bed.Emscripten.clang"
  },
  "schemaVersion": "3.4.16",
  "updatedAt": "2026-03-05T23:22:01.754Z",
  "networkType": "ethereum",
  "devdoc": {
    "kind": "dev",
    "methods": {
      "recordInvoice(string,string,string,string,string)": {
        "details": "Store the fingerprint of an invoice on the blockchain.",
        "params": {
          "_documentHash": "The unique fingerprint/hash of the invoice document",
          "_invoiceNumber": "The parsed invoice number",
          "_riskScore": "The calculated risk score from ML model",
          "_totalAmount": "The parsed total amount",
          "_vendorName": "The parsed vendor name"
        }
      },
      "verifyInvoice(string)": {
        "details": "Fetch an invoice's recorded details using its document hash to detect tampering.",
        "params": {
          "_documentHash": "The unique fingerprint/hash of the invoice document"
        }
      }
    },
    "version": 1
  },
  "userdoc": {
    "kind": "user",
    "methods": {},
    "version": 1
  }
}